{
  "address": "0xADFA409941E7D2d9717f9775977282dAB0Ff7B11",
  "abi": [
    {
      "inputs": [],
      "stateMutability": "nonpayable",
      "type": "constructor"
    },
    {
      "inputs": [],
      "name": "DefiContribute__NoAdminFound",
      "type": "error"
    },
    {
      "inputs": [],
      "name": "DefiContribute__NotAcceptedAsDonee",
      "type": "error"
    },
    {
      "inputs": [],
      "name": "DefiContribute__NotDonee",
      "type": "error"
    },
    {
      "inputs": [],
      "name": "DefiContribute__NotElegibleDueYourRole",
      "type": "error"
    },
    {
      "inputs": [],
      "name": "DefiContribute__NotEligibleToDoneeRequest",
      "type": "error"
    },
    {
      "inputs": [],
      "name": "DefiContribute__NotEligibleToRemoval",
      "type": "error"
    },
    {
      "inputs": [],
      "name": "DefiContribute__NotEligibleToWithdraw",
      "type": "error"
    },
    {
      "inputs": [],
      "name": "DefiContribute__NotInPendingStatus",
      "type": "error"
    },
    {
      "inputs": [],
      "name": "DefiContribute__NotTheDonee",
      "type": "error"
    },
    {
      "anonymous": false,
      "inputs": [
        {
          "indexed": true,
          "internalType": "address",
          "name": "admin",
          "type": "address"
        }
      ],
      "name": "AdminRevoke",
      "type": "event"
    },
    {
      "anonymous": false,
      "inputs": [
        {
          "indexed": true,
          "internalType": "address",
          "name": "donee",
          "type": "address"
        }
      ],
      "name": "ApprovedDonee",
      "type": "event"
    },
    {
      "anonymous": false,
      "inputs": [
        {
          "indexed": true,
          "internalType": "address",
          "name": "to",
          "type": "address"
        },
        {
          "indexed": true,
          "internalType": "address",
          "name": "from",
          "type": "address"
        },
        {
          "indexed": true,
          "internalType": "uint256",
          "name": "amount",
          "type": "uint256"
        }
      ],
      "name": "Donation",
      "type": "event"
    },
    {
      "anonymous": false,
      "inputs": [
        {
          "indexed": true,
          "internalType": "address",
          "name": "donee",
          "type": "address"
        }
      ],
      "name": "DoneeRequestCanceled",
      "type": "event"
    },
    {
      "anonymous": false,
      "inputs": [
        {
          "indexed": false,
          "internalType": "string",
          "name": "cause",
          "type": "string"
        },
        {
          "indexed": true,
          "internalType": "uint256",
          "name": "doneeId",
          "type": "uint256"
        },
        {
          "indexed": true,
          "internalType": "address",
          "name": "donee",
          "type": "address"
        }
      ],
      "name": "EliminatedDonee",
      "type": "event"
    },
    {
      "anonymous": false,
      "inputs": [
        {
          "indexed": true,
          "internalType": "address",
          "name": "admin",
          "type": "address"
        }
      ],
      "name": "NewAdmin",
      "type": "event"
    },
    {
      "anonymous": false,
      "inputs": [
        {
          "indexed": false,
          "internalType": "string",
          "name": "cause",
          "type": "string"
        },
        {
          "indexed": true,
          "internalType": "uint256",
          "name": "doneeId",
          "type": "uint256"
        },
        {
          "indexed": true,
          "internalType": "address",
          "name": "donee",
          "type": "address"
        },
        {
          "indexed": false,
          "internalType": "string",
          "name": "message",
          "type": "string"
        }
      ],
      "name": "NewDonee",
      "type": "event"
    },
    {
      "anonymous": false,
      "inputs": [
        {
          "indexed": true,
          "internalType": "address",
          "name": "donee",
          "type": "address"
        },
        {
          "indexed": false,
          "internalType": "string",
          "name": "message",
          "type": "string"
        }
      ],
      "name": "NewDoneeRequest",
      "type": "event"
    },
    {
      "anonymous": false,
      "inputs": [
        {
          "indexed": true,
          "internalType": "address",
          "name": "previousOwner",
          "type": "address"
        },
        {
          "indexed": true,
          "internalType": "address",
          "name": "newOwner",
          "type": "address"
        }
      ],
      "name": "OwnershipTransferred",
      "type": "event"
    },
    {
      "anonymous": false,
      "inputs": [
        {
          "indexed": false,
          "internalType": "string",
          "name": "cause",
          "type": "string"
        },
        {
          "indexed": true,
          "internalType": "uint256",
          "name": "id",
          "type": "uint256"
        },
        {
          "indexed": true,
          "internalType": "address",
          "name": "wallet",
          "type": "address"
        }
      ],
      "name": "ReadyToRemove",
      "type": "event"
    },
    {
      "anonymous": false,
      "inputs": [
        {
          "indexed": false,
          "internalType": "string",
          "name": "cause",
          "type": "string"
        },
        {
          "indexed": true,
          "internalType": "uint256",
          "name": "doneeId",
          "type": "uint256"
        },
        {
          "indexed": false,
          "internalType": "address",
          "name": "donee",
          "type": "address"
        },
        {
          "indexed": true,
          "internalType": "address",
          "name": "admin",
          "type": "address"
        }
      ],
      "name": "RedFlag",
      "type": "event"
    },
    {
      "anonymous": false,
      "inputs": [
        {
          "indexed": true,
          "internalType": "address",
          "name": "donee",
          "type": "address"
        }
      ],
      "name": "RejectedDonee",
      "type": "event"
    },
    {
      "anonymous": false,
      "inputs": [
        {
          "indexed": true,
          "internalType": "uint256",
          "name": "amount",
          "type": "uint256"
        }
      ],
      "name": "SummedToThePool",
      "type": "event"
    },
    {
      "anonymous": false,
      "inputs": [
        {
          "indexed": true,
          "internalType": "uint256",
          "name": "doneeId",
          "type": "uint256"
        },
        {
          "indexed": true,
          "internalType": "address",
          "name": "donee",
          "type": "address"
        },
        {
          "indexed": true,
          "internalType": "uint256",
          "name": "proceeds",
          "type": "uint256"
        }
      ],
      "name": "Withdrawal",
      "type": "event"
    },
    {
      "inputs": [
        {
          "internalType": "address",
          "name": "_newAdmin",
          "type": "address"
        }
      ],
      "name": "addAdmin",
      "outputs": [],
      "stateMutability": "nonpayable",
      "type": "function"
    },
    {
      "inputs": [
        {
          "internalType": "uint256",
          "name": "_doneeId",
          "type": "uint256"
        },
        {
          "internalType": "address",
          "name": "_wallet",
          "type": "address"
        }
      ],
      "name": "addRedFlag",
      "outputs": [],
      "stateMutability": "nonpayable",
      "type": "function"
    },
    {
      "inputs": [
        {
          "internalType": "address",
          "name": "",
          "type": "address"
        }
      ],
      "name": "addressToDoneeId",
      "outputs": [
        {
          "internalType": "uint256",
          "name": "",
          "type": "uint256"
        }
      ],
      "stateMutability": "view",
      "type": "function"
    },
    {
      "inputs": [
        {
          "internalType": "address",
          "name": "",
          "type": "address"
        }
      ],
      "name": "addressToRequestsSent",
      "outputs": [
        {
          "internalType": "uint8",
          "name": "",
          "type": "uint8"
        }
      ],
      "stateMutability": "view",
      "type": "function"
    },
    {
      "inputs": [
        {
          "internalType": "address",
          "name": "",
          "type": "address"
        }
      ],
      "name": "admin",
      "outputs": [
        {
          "internalType": "bool",
          "name": "",
          "type": "bool"
        }
      ],
      "stateMutability": "view",
      "type": "function"
    },
    {
      "inputs": [
        {
          "internalType": "address payable",
          "name": "_donee",
          "type": "address"
        }
      ],
      "name": "approveDonee",
      "outputs": [],
      "stateMutability": "nonpayable",
      "type": "function"
    },
    {
      "inputs": [
        {
          "internalType": "string",
          "name": "_cause",
          "type": "string"
        },
        {
          "internalType": "string",
          "name": "_message",
          "type": "string"
        }
      ],
      "name": "becomeDonee",
      "outputs": [],
      "stateMutability": "nonpayable",
      "type": "function"
    },
    {
      "inputs": [],
      "name": "cancelDoneePetition",
      "outputs": [],
      "stateMutability": "nonpayable",
      "type": "function"
    },
    {
      "inputs": [
        {
          "internalType": "uint256",
          "name": "_doneeId",
          "type": "uint256"
        },
        {
          "internalType": "address payable",
          "name": "_wallet",
          "type": "address"
        }
      ],
      "name": "donate",
      "outputs": [],
      "stateMutability": "payable",
      "type": "function"
    },
    {
      "inputs": [
        {
          "internalType": "address",
          "name": "",
          "type": "address"
        }
      ],
      "name": "doneeCandidateToFreezeTime",
      "outputs": [
        {
          "internalType": "uint256",
          "name": "",
          "type": "uint256"
        }
      ],
      "stateMutability": "view",
      "type": "function"
    },
    {
      "inputs": [
        {
          "internalType": "string",
          "name": "_message",
          "type": "string"
        }
      ],
      "name": "doneePetition",
      "outputs": [
        {
          "internalType": "bool",
          "name": "success",
          "type": "bool"
        }
      ],
      "stateMutability": "nonpayable",
      "type": "function"
    },
    {
      "inputs": [
        {
          "internalType": "address",
          "name": "",
          "type": "address"
        }
      ],
      "name": "doneeToStatus",
      "outputs": [
        {
          "internalType": "enum DefiContribute.doneeStatus",
          "name": "",
          "type": "uint8"
        }
      ],
      "stateMutability": "view",
      "type": "function"
    },
    {
      "inputs": [
        {
          "internalType": "uint256",
          "name": "",
          "type": "uint256"
        }
      ],
      "name": "doneeToWithdrawalFreeze",
      "outputs": [
        {
          "internalType": "uint256",
          "name": "",
          "type": "uint256"
        }
      ],
      "stateMutability": "view",
      "type": "function"
    },
    {
      "inputs": [],
      "name": "doneesId",
      "outputs": [
        {
          "internalType": "uint256",
          "name": "",
          "type": "uint256"
        }
      ],
      "stateMutability": "view",
      "type": "function"
    },
    {
      "inputs": [
        {
          "internalType": "uint256",
          "name": "",
          "type": "uint256"
        }
      ],
      "name": "idToDonee",
      "outputs": [
        {
          "internalType": "string",
          "name": "cause",
          "type": "string"
        },
        {
          "internalType": "uint256",
          "name": "id",
          "type": "uint256"
        },
        {
          "internalType": "uint256",
          "name": "proceeds",
          "type": "uint256"
        },
        {
          "internalType": "address payable",
          "name": "wallet",
          "type": "address"
        },
        {
          "internalType": "string",
          "name": "message",
          "type": "string"
        }
      ],
      "stateMutability": "view",
      "type": "function"
    },
    {
      "inputs": [
        {
          "internalType": "uint256",
          "name": "",
          "type": "uint256"
        }
      ],
      "name": "idToRedFlags",
      "outputs": [
        {
          "internalType": "uint8",
          "name": "",
          "type": "uint8"
        }
      ],
      "stateMutability": "view",
      "type": "function"
    },
    {
      "inputs": [],
      "name": "owner",
      "outputs": [
        {
          "internalType": "address",
          "name": "",
          "type": "address"
        }
      ],
      "stateMutability": "view",
      "type": "function"
    },
    {
      "inputs": [],
      "name": "randomDonationPool",
      "outputs": [
        {
          "internalType": "uint256",
          "name": "",
          "type": "uint256"
        }
      ],
      "stateMutability": "view",
      "type": "function"
    },
    {
      "inputs": [
        {
          "internalType": "address payable",
          "name": "_donee",
          "type": "address"
        }
      ],
      "name": "rejectDonee",
      "outputs": [],
      "stateMutability": "nonpayable",
      "type": "function"
    },
    {
      "inputs": [
        {
          "internalType": "uint256",
          "name": "_doneeId",
          "type": "uint256"
        },
        {
          "internalType": "address payable",
          "name": "_wallet",
          "type": "address"
        }
      ],
      "name": "removeDonee",
      "outputs": [],
      "stateMutability": "nonpayable",
      "type": "function"
    },
    {
      "inputs": [],
      "name": "renounceOwnership",
      "outputs": [],
      "stateMutability": "nonpayable",
      "type": "function"
    },
    {
      "inputs": [
        {
          "internalType": "address",
          "name": "_admin",
          "type": "address"
        }
      ],
      "name": "revokeAdmin",
      "outputs": [],
      "stateMutability": "nonpayable",
      "type": "function"
    },
    {
      "inputs": [
        {
          "internalType": "address",
          "name": "",
          "type": "address"
        }
      ],
      "name": "toNewDonee",
      "outputs": [
        {
          "internalType": "bool",
          "name": "",
          "type": "bool"
        }
      ],
      "stateMutability": "view",
      "type": "function"
    },
    {
      "inputs": [
        {
          "internalType": "address",
          "name": "newOwner",
          "type": "address"
        }
      ],
      "name": "transferOwnership",
      "outputs": [],
      "stateMutability": "nonpayable",
      "type": "function"
    },
    {
      "inputs": [],
      "name": "withdraw",
      "outputs": [],
      "stateMutability": "nonpayable",
      "type": "function"
    }
  ],
  "transactionHash": "0xba3629159919800c66c29dcfb64ddc3d25b50e43c99d4d871230e58545f2eac2",
  "args": [],
  "numDeployments": 9,
  "solcInputHash": "b42f396748b44f1dd6590ffbe0f696b4",
  "bytecode": "0x60806040526001600a553480156200001657600080fd5b50620000376200002b6200003d60201b60201c565b6200004560201b60201c565b62000109565b600033905090565b60008060009054906101000a900473ffffffffffffffffffffffffffffffffffffffff169050816000806101000a81548173ffffffffffffffffffffffffffffffffffffffff021916908373ffffffffffffffffffffffffffffffffffffffff1602179055508173ffffffffffffffffffffffffffffffffffffffff168173ffffffffffffffffffffffffffffffffffffffff167f8be0079c531659141344cd1fd0a4f28419497f9722a3daafe3b4186f6b6457e060405160405180910390a35050565b612f7180620001196000396000f3fe6080604052600436106101665760003560e01c806370fbb711116100d1578063b5ff7a981161008a578063d121f01f11610064578063d121f01f1461052f578063e47c635b14610558578063f2fde38b14610595578063fb38d587146105be57610166565b8063b5ff7a981461049e578063bb7c6149146104c7578063bdb4ae39146104f257610166565b806370fbb7111461039d578063715018a6146103da5780638004f9fa146103f157806388bde8371461040d5780638da5cb5b14610436578063a0dca8281461046157610166565b80633ccfd60b116101235780633ccfd60b1461029d578063434b0d96146102b45780634583401b146102df5780635e32c625146102f657806363a846f814610337578063704802751461037457610166565b80631ebf1da51461016b578063290334c5146101a85780632a6daf9c146101d15780632ab557f6146101fa5780632d345670146102375780633c10bff714610260575b600080fd5b34801561017757600080fd5b50610192600480360381019061018d9190612528565b6105fb565b60405161019f919061256e565b60405180910390f35b3480156101b457600080fd5b506101cf60048036038101906101ca91906125f3565b610613565b005b3480156101dd57600080fd5b506101f860048036038101906101f39190612633565b610a17565b005b34801561020657600080fd5b50610221600480360381019061021c9190612660565b610c79565b60405161022e919061256e565b60405180910390f35b34801561024357600080fd5b5061025e60048036038101906102599190612528565b610c91565b005b34801561026c57600080fd5b5061028760048036038101906102829190612528565b610dc6565b604051610294919061256e565b60405180910390f35b3480156102a957600080fd5b506102b2610dde565b005b3480156102c057600080fd5b506102c9611136565b6040516102d6919061256e565b60405180910390f35b3480156102eb57600080fd5b506102f461113c565b005b34801561030257600080fd5b5061031d60048036038101906103189190612660565b6112fc565b60405161032e959493929190612735565b60405180910390f35b34801561034357600080fd5b5061035e60048036038101906103599190612528565b611462565b60405161036b91906127b1565b60405180910390f35b34801561038057600080fd5b5061039b60048036038101906103969190612528565b611482565b005b3480156103a957600080fd5b506103c460048036038101906103bf9190612901565b611527565b6040516103d191906127b1565b60405180910390f35b3480156103e657600080fd5b506103ef611811565b005b61040b600480360381019061040691906125f3565b611825565b005b34801561041957600080fd5b50610434600480360381019061042f9190612633565b6119c1565b005b34801561044257600080fd5b5061044b611bd1565b6040516104589190612959565b60405180910390f35b34801561046d57600080fd5b5061048860048036038101906104839190612528565b611bfa565b60405161049591906129eb565b60405180910390f35b3480156104aa57600080fd5b506104c560048036038101906104c09190612a06565b611c1a565b005b3480156104d357600080fd5b506104dc611f1f565b6040516104e9919061256e565b60405180910390f35b3480156104fe57600080fd5b5061051960048036038101906105149190612528565b611f25565b60405161052691906127b1565b60405180910390f35b34801561053b57600080fd5b5061055660048036038101906105519190612a7e565b611f45565b005b34801561056457600080fd5b5061057f600480360381019061057a9190612528565b6121c6565b60405161058c9190612ada565b60405180910390f35b3480156105a157600080fd5b506105bc60048036038101906105b79190612528565b6121e6565b005b3480156105ca57600080fd5b506105e560048036038101906105e09190612660565b612269565b6040516105f29190612ada565b60405180910390f35b60056020528060005260406000206000915090505481565b60011515600160003373ffffffffffffffffffffffffffffffffffffffff1673ffffffffffffffffffffffffffffffffffffffff16815260200190815260200160002060009054906101000a900460ff161515036109e1578181600a5482111580156106e057506006600083815260200190815260200160002060030160009054906101000a900473ffffffffffffffffffffffffffffffffffffffff1673ffffffffffffffffffffffffffffffffffffffff168173ffffffffffffffffffffffffffffffffffffffff16145b8015610710575060036009600084815260200190815260200160002060009054906101000a900460ff1660ff1610155b156109a857600060066000868152602001908152602001600020600001805461073890612b24565b80601f016020809104026020016040519081016040528092919081815260200182805461076490612b24565b80156107b15780601f10610786576101008083540402835291602001916107b1565b820191906000526020600020905b81548152906001019060200180831161079457829003601f168201915b5050505050905060006006600087815260200190815260200160002060030160009054906101000a900473ffffffffffffffffffffffffffffffffffffffff16905060006006600088815260200190815260200160002060020154905060058081111561082157610820612974565b5b600581111561083357610832612974565b5b600360008873ffffffffffffffffffffffffffffffffffffffff1673ffffffffffffffffffffffffffffffffffffffff16815260200190815260200160002060009054906101000a900460ff16600581111561089257610891612974565b5b505060066000888152602001908152602001600020600080820160006108b891906123d3565b600182016000905560028201600090556003820160006101000a81549073ffffffffffffffffffffffffffffffffffffffff02191690556004820160006108ff91906123d3565b505060008111156109515780600b600082825461091c9190612b84565b92505081905550807f8e93376fbc704d7ad6fb176a1d6db518bd3419f53c422e52f635f7431a04614860405160405180910390a25b8173ffffffffffffffffffffffffffffffffffffffff16877f46f016f4c4df5160652d59ddfd8981697d79f8d1471f3075aae1f839c48aa328856040516109989190612bda565b60405180910390a35050506109da565b6040517f3cec5e7600000000000000000000000000000000000000000000000000000000815260040160405180910390fd5b5050610a13565b6040517f4ee7f7e100000000000000000000000000000000000000000000000000000000815260040160405180910390fd5b5050565b60011515600160003373ffffffffffffffffffffffffffffffffffffffff1673ffffffffffffffffffffffffffffffffffffffff16815260200190815260200160002060009054906101000a900460ff16151503610c445760016005811115610a8357610a82612974565b5b6005811115610a9557610a94612974565b5b600360008373ffffffffffffffffffffffffffffffffffffffff1673ffffffffffffffffffffffffffffffffffffffff16815260200190815260200160002060009054906101000a900460ff166005811115610af457610af3612974565b5b03610c0d57626ebe0042610b089190612b84565b600560008373ffffffffffffffffffffffffffffffffffffffff1673ffffffffffffffffffffffffffffffffffffffff1681526020019081526020016000208190555060006005811115610b5f57610b5e612974565b5b600360008373ffffffffffffffffffffffffffffffffffffffff1673ffffffffffffffffffffffffffffffffffffffff16815260200190815260200160002060006101000a81548160ff02191690836005811115610bc057610bbf612974565b5b02179055508073ffffffffffffffffffffffffffffffffffffffff167f87cc692c545c54e9bfca3c6ae497959ccedcb882e98fe00f0b3727eebd376d2760405160405180910390a2610c3f565b6040517f91015ac000000000000000000000000000000000000000000000000000000000815260040160405180910390fd5b610c76565b6040517f4ee7f7e100000000000000000000000000000000000000000000000000000000815260040160405180910390fd5b50565b60086020528060005260406000206000915090505481565b610c99612289565b60011515600160008373ffffffffffffffffffffffffffffffffffffffff1673ffffffffffffffffffffffffffffffffffffffff16815260200190815260200160002060009054906101000a900460ff16151503610d91576000600160008373ffffffffffffffffffffffffffffffffffffffff1673ffffffffffffffffffffffffffffffffffffffff16815260200190815260200160002060006101000a81548160ff0219169083151502179055508073ffffffffffffffffffffffffffffffffffffffff167ffc39847ee7e0d58f93c19a6ccbdede1c4d372673160e4bfa484452b26ffdbfe360405160405180910390a2610dc3565b6040517f4ee7f7e100000000000000000000000000000000000000000000000000000000815260040160405180910390fd5b50565b60076020528060005260406000206000915090505481565b3373ffffffffffffffffffffffffffffffffffffffff1660066000600760003373ffffffffffffffffffffffffffffffffffffffff1673ffffffffffffffffffffffffffffffffffffffff16815260200190815260200160002054815260200190815260200160002060030160009054906101000a900473ffffffffffffffffffffffffffffffffffffffff1673ffffffffffffffffffffffffffffffffffffffff1603611102574260086000600760003373ffffffffffffffffffffffffffffffffffffffff1673ffffffffffffffffffffffffffffffffffffffff16815260200190815260200160002054815260200190815260200160002054116110cb57600060066000600760003373ffffffffffffffffffffffffffffffffffffffff1673ffffffffffffffffffffffffffffffffffffffff168152602001908152602001600020548152602001908152602001600020600201549050600060066000600760003373ffffffffffffffffffffffffffffffffffffffff1673ffffffffffffffffffffffffffffffffffffffff1681526020019081526020016000205481526020019081526020016000206002018190555060003373ffffffffffffffffffffffffffffffffffffffff1682604051610fba90612c2d565b60006040518083038185875af1925050503d8060008114610ff7576040519150601f19603f3d011682016040523d82523d6000602084013e610ffc565b606091505b5050905080611040576040517f08c379a000000000000000000000000000000000000000000000000000000000815260040161103790612c8e565b60405180910390fd5b813373ffffffffffffffffffffffffffffffffffffffff16600760003373ffffffffffffffffffffffffffffffffffffffff1673ffffffffffffffffffffffffffffffffffffffff168152602001908152602001600020547f37e8063b72a944a76de602f32b82fd8c2a1c6f99564c727ffaf913c7762cd42060405160405180910390a450506110fd565b6040517f4bd0eeef00000000000000000000000000000000000000000000000000000000815260040160405180910390fd5b611134565b6040517f370d811e00000000000000000000000000000000000000000000000000000000815260040160405180910390fd5b565b600a5481565b600160058111156111505761114f612974565b5b600360003373ffffffffffffffffffffffffffffffffffffffff1673ffffffffffffffffffffffffffffffffffffffff16815260200190815260200160002060009054906101000a900460ff1660058111156111af576111ae612974565b5b036112c8576224ea00426111c39190612b84565b600560003373ffffffffffffffffffffffffffffffffffffffff1673ffffffffffffffffffffffffffffffffffffffff168152602001908152602001600020819055506003600581111561121a57611219612974565b5b600360003373ffffffffffffffffffffffffffffffffffffffff1673ffffffffffffffffffffffffffffffffffffffff16815260200190815260200160002060006101000a81548160ff0219169083600581111561127b5761127a612974565b5b02179055503373ffffffffffffffffffffffffffffffffffffffff167f05a088c19c95fb9b607ef05cc66c78ea44920894339f44949c5448322f2c433460405160405180910390a26112fa565b6040517f91015ac000000000000000000000000000000000000000000000000000000000815260040160405180910390fd5b565b600660205280600052604060002060009150905080600001805461131f90612b24565b80601f016020809104026020016040519081016040528092919081815260200182805461134b90612b24565b80156113985780601f1061136d57610100808354040283529160200191611398565b820191906000526020600020905b81548152906001019060200180831161137b57829003601f168201915b5050505050908060010154908060020154908060030160009054906101000a900473ffffffffffffffffffffffffffffffffffffffff16908060040180546113df90612b24565b80601f016020809104026020016040519081016040528092919081815260200182805461140b90612b24565b80156114585780601f1061142d57610100808354040283529160200191611458565b820191906000526020600020905b81548152906001019060200180831161143b57829003601f168201915b5050505050905085565b60016020528060005260406000206000915054906101000a900460ff1681565b61148a612289565b60018060008373ffffffffffffffffffffffffffffffffffffffff1673ffffffffffffffffffffffffffffffffffffffff16815260200190815260200160002060006101000a81548160ff0219169083151502179055508073ffffffffffffffffffffffffffffffffffffffff167f71614071b88dee5e0b2ae578a9dd7b2ebbe9ae832ba419dc0242cd065a290b6c60405160405180910390a250565b60003373ffffffffffffffffffffffffffffffffffffffff16611548611bd1565b73ffffffffffffffffffffffffffffffffffffffff1614806115ba575060011515600160003373ffffffffffffffffffffffffffffffffffffffff1673ffffffffffffffffffffffffffffffffffffffff16815260200190815260200160002060009054906101000a900460ff161515145b156115f1576040517f223a631900000000000000000000000000000000000000000000000000000000815260040160405180910390fd5b6003600460003373ffffffffffffffffffffffffffffffffffffffff1673ffffffffffffffffffffffffffffffffffffffff16815260200190815260200160002060009054906101000a900460ff1660ff1610801561168f575042600560003373ffffffffffffffffffffffffffffffffffffffff1673ffffffffffffffffffffffffffffffffffffffff1681526020019081526020016000205411155b156117da57600460003373ffffffffffffffffffffffffffffffffffffffff1673ffffffffffffffffffffffffffffffffffffffff168152602001908152602001600020600081819054906101000a900460ff16809291906116f090612cae565b91906101000a81548160ff021916908360ff160217905550506001600581111561171d5761171c612974565b5b600360003373ffffffffffffffffffffffffffffffffffffffff1673ffffffffffffffffffffffffffffffffffffffff16815260200190815260200160002060006101000a81548160ff0219169083600581111561177e5761177d612974565b5b02179055503373ffffffffffffffffffffffffffffffffffffffff167f5f610ebaf61c83b9959bb61070d05b196d0ac759bcc382f7e535166386082a68836040516117c99190612bda565b60405180910390a26001905061180c565b6040517f517295a000000000000000000000000000000000000000000000000000000000815260040160405180910390fd5b919050565b611819612289565b6118236000612307565b565b600073ffffffffffffffffffffffffffffffffffffffff166006600084815260200190815260200160002060030160009054906101000a900473ffffffffffffffffffffffffffffffffffffffff1673ffffffffffffffffffffffffffffffffffffffff16141580156118f957508073ffffffffffffffffffffffffffffffffffffffff166006600084815260200190815260200160002060030160009054906101000a900473ffffffffffffffffffffffffffffffffffffffff1673ffffffffffffffffffffffffffffffffffffffff16145b1561198b57346006600084815260200190815260200160002060020160008282546119249190612b84565b92505081905550343373ffffffffffffffffffffffffffffffffffffffff168273ffffffffffffffffffffffffffffffffffffffff167f597440e65d8cdea1298e19df50e115bda25508180452d87a7f4f99195fb843a460405160405180910390a46119bd565b6040517f341ebcca00000000000000000000000000000000000000000000000000000000815260040160405180910390fd5b5050565b60011515600160003373ffffffffffffffffffffffffffffffffffffffff1673ffffffffffffffffffffffffffffffffffffffff16815260200190815260200160002060009054906101000a900460ff16151503611b9c5760016005811115611a2d57611a2c612974565b5b6005811115611a3f57611a3e612974565b5b600360008373ffffffffffffffffffffffffffffffffffffffff1673ffffffffffffffffffffffffffffffffffffffff16815260200190815260200160002060009054906101000a900460ff166005811115611a9e57611a9d612974565b5b03611b655760026005811115611ab757611ab6612974565b5b600360008373ffffffffffffffffffffffffffffffffffffffff1673ffffffffffffffffffffffffffffffffffffffff16815260200190815260200160002060006101000a81548160ff02191690836005811115611b1857611b17612974565b5b02179055508073ffffffffffffffffffffffffffffffffffffffff167f6f5cf3337dd22f5c04e2759cfc9e319d4f95c46636750b801f7afe43146cab7460405160405180910390a2611b97565b6040517f341ebcca00000000000000000000000000000000000000000000000000000000815260040160405180910390fd5b611bce565b6040517f4ee7f7e100000000000000000000000000000000000000000000000000000000815260040160405180910390fd5b50565b60008060009054906101000a900473ffffffffffffffffffffffffffffffffffffffff16905090565b60036020528060005260406000206000915054906101000a900460ff1681565b60026005811115611c2e57611c2d612974565b5b6005811115611c4057611c3f612974565b5b600360003373ffffffffffffffffffffffffffffffffffffffff1673ffffffffffffffffffffffffffffffffffffffff16815260200190815260200160002060009054906101000a900460ff166005811115611c9f57611c9e612974565b5b03611ee9576040518060a00160405280838152602001600a548152602001600081526020013373ffffffffffffffffffffffffffffffffffffffff1681526020018281525060066000600a5481526020019081526020016000206000820151816000019080519060200190611d15929190612413565b50602082015181600101556040820151816002015560608201518160030160006101000a81548173ffffffffffffffffffffffffffffffffffffffff021916908373ffffffffffffffffffffffffffffffffffffffff1602179055506080820151816004019080519060200190611d8d929190612413565b50905050600a54600760003373ffffffffffffffffffffffffffffffffffffffff1673ffffffffffffffffffffffffffffffffffffffff168152602001908152602001600020819055506224ea0042611de69190612b84565b60086000600a5481526020019081526020016000208190555060046005811115611e1357611e12612974565b5b600360003373ffffffffffffffffffffffffffffffffffffffff1673ffffffffffffffffffffffffffffffffffffffff16815260200190815260200160002060006101000a81548160ff02191690836005811115611e7457611e73612974565b5b02179055503373ffffffffffffffffffffffffffffffffffffffff16600a547f0e00d0743dcabe266604a59cc9359e56f18904548d6a3860060c803dd9df23458484604051611ec4929190612cd7565b60405180910390a3600a6000815480929190611edf90612d0e565b9190505550611f1b565b6040517fbac3cc9e00000000000000000000000000000000000000000000000000000000815260040160405180910390fd5b5050565b600b5481565b60026020528060005260406000206000915054906101000a900460ff1681565b60011515600160003373ffffffffffffffffffffffffffffffffffffffff1673ffffffffffffffffffffffffffffffffffffffff16815260200190815260200160002060009054906101000a900460ff1615150361219057600a54821115801561201057508073ffffffffffffffffffffffffffffffffffffffff166006600084815260200190815260200160002060030160009054906101000a900473ffffffffffffffffffffffffffffffffffffffff1673ffffffffffffffffffffffffffffffffffffffff16145b156121595760096000838152602001908152602001600020600081819054906101000a900460ff168092919061204590612cae565b91906101000a81548160ff021916908360ff160217905550503373ffffffffffffffffffffffffffffffffffffffff16827f2c13aa47a15a3cdbf2876a5c46c7097637cc6a83b0c55e34fccace7bcc3078a560066000868152602001908152602001600020600001846040516120bc929190612deb565b60405180910390a360036009600084815260200190815260200160002060009054906101000a900460ff1660ff1610612154578073ffffffffffffffffffffffffffffffffffffffff16827f108b450dfcd53ffebb0e2dfff00004cab47f0087350b1f4d724bc1264738755e6006600086815260200190815260200160002060000160405161214b9190612e1b565b60405180910390a35b61218b565b6040517f370d811e00000000000000000000000000000000000000000000000000000000815260040160405180910390fd5b6121c2565b6040517f4ee7f7e100000000000000000000000000000000000000000000000000000000815260040160405180910390fd5b5050565b60046020528060005260406000206000915054906101000a900460ff1681565b6121ee612289565b600073ffffffffffffffffffffffffffffffffffffffff168173ffffffffffffffffffffffffffffffffffffffff160361225d576040517f08c379a000000000000000000000000000000000000000000000000000000000815260040161225490612eaf565b60405180910390fd5b61226681612307565b50565b60096020528060005260406000206000915054906101000a900460ff1681565b6122916123cb565b73ffffffffffffffffffffffffffffffffffffffff166122af611bd1565b73ffffffffffffffffffffffffffffffffffffffff1614612305576040517f08c379a00000000000000000000000000000000000000000000000000000000081526004016122fc90612f1b565b60405180910390fd5b565b60008060009054906101000a900473ffffffffffffffffffffffffffffffffffffffff169050816000806101000a81548173ffffffffffffffffffffffffffffffffffffffff021916908373ffffffffffffffffffffffffffffffffffffffff1602179055508173ffffffffffffffffffffffffffffffffffffffff168173ffffffffffffffffffffffffffffffffffffffff167f8be0079c531659141344cd1fd0a4f28419497f9722a3daafe3b4186f6b6457e060405160405180910390a35050565b600033905090565b5080546123df90612b24565b6000825580601f106123f15750612410565b601f01602090049060005260206000209081019061240f9190612499565b5b50565b82805461241f90612b24565b90600052602060002090601f0160209004810192826124415760008555612488565b82601f1061245a57805160ff1916838001178555612488565b82800160010185558215612488579182015b8281111561248757825182559160200191906001019061246c565b5b5090506124959190612499565b5090565b5b808211156124b257600081600090555060010161249a565b5090565b6000604051905090565b600080fd5b600080fd5b600073ffffffffffffffffffffffffffffffffffffffff82169050919050565b60006124f5826124ca565b9050919050565b612505816124ea565b811461251057600080fd5b50565b600081359050612522816124fc565b92915050565b60006020828403121561253e5761253d6124c0565b5b600061254c84828501612513565b91505092915050565b6000819050919050565b61256881612555565b82525050565b6000602082019050612583600083018461255f565b92915050565b61259281612555565b811461259d57600080fd5b50565b6000813590506125af81612589565b92915050565b60006125c0826124ca565b9050919050565b6125d0816125b5565b81146125db57600080fd5b50565b6000813590506125ed816125c7565b92915050565b6000806040838503121561260a576126096124c0565b5b6000612618858286016125a0565b9250506020612629858286016125de565b9150509250929050565b600060208284031215612649576126486124c0565b5b6000612657848285016125de565b91505092915050565b600060208284031215612676576126756124c0565b5b6000612684848285016125a0565b91505092915050565b600081519050919050565b600082825260208201905092915050565b60005b838110156126c75780820151818401526020810190506126ac565b838111156126d6576000848401525b50505050565b6000601f19601f8301169050919050565b60006126f88261268d565b6127028185612698565b93506127128185602086016126a9565b61271b816126dc565b840191505092915050565b61272f816125b5565b82525050565b600060a082019050818103600083015261274f81886126ed565b905061275e602083018761255f565b61276b604083018661255f565b6127786060830185612726565b818103608083015261278a81846126ed565b90509695505050505050565b60008115159050919050565b6127ab81612796565b82525050565b60006020820190506127c660008301846127a2565b92915050565b600080fd5b600080fd5b7f4e487b7100000000000000000000000000000000000000000000000000000000600052604160045260246000fd5b61280e826126dc565b810181811067ffffffffffffffff8211171561282d5761282c6127d6565b5b80604052505050565b60006128406124b6565b905061284c8282612805565b919050565b600067ffffffffffffffff82111561286c5761286b6127d6565b5b612875826126dc565b9050602081019050919050565b82818337600083830152505050565b60006128a461289f84612851565b612836565b9050828152602081018484840111156128c0576128bf6127d1565b5b6128cb848285612882565b509392505050565b600082601f8301126128e8576128e76127cc565b5b81356128f8848260208601612891565b91505092915050565b600060208284031215612917576129166124c0565b5b600082013567ffffffffffffffff811115612935576129346124c5565b5b612941848285016128d3565b91505092915050565b612953816124ea565b82525050565b600060208201905061296e600083018461294a565b92915050565b7f4e487b7100000000000000000000000000000000000000000000000000000000600052602160045260246000fd5b600681106129b4576129b3612974565b5b50565b60008190506129c5826129a3565b919050565b60006129d5826129b7565b9050919050565b6129e5816129ca565b82525050565b6000602082019050612a0060008301846129dc565b92915050565b60008060408385031215612a1d57612a1c6124c0565b5b600083013567ffffffffffffffff811115612a3b57612a3a6124c5565b5b612a47858286016128d3565b925050602083013567ffffffffffffffff811115612a6857612a676124c5565b5b612a74858286016128d3565b9150509250929050565b60008060408385031215612a9557612a946124c0565b5b6000612aa3858286016125a0565b9250506020612ab485828601612513565b9150509250929050565b600060ff82169050919050565b612ad481612abe565b82525050565b6000602082019050612aef6000830184612acb565b92915050565b7f4e487b7100000000000000000000000000000000000000000000000000000000600052602260045260246000fd5b60006002820490506001821680612b3c57607f821691505b602082108103612b4f57612b4e612af5565b5b50919050565b7f4e487b7100000000000000000000000000000000000000000000000000000000600052601160045260246000fd5b6000612b8f82612555565b9150612b9a83612555565b9250827fffffffffffffffffffffffffffffffffffffffffffffffffffffffffffffffff03821115612bcf57612bce612b55565b5b828201905092915050565b60006020820190508181036000830152612bf481846126ed565b905092915050565b600081905092915050565b50565b6000612c17600083612bfc565b9150612c2282612c07565b600082019050919050565b6000612c3882612c0a565b9150819050919050565b7f436f756c64206e6f742077697468647261772070726f63656564732e2e2e0000600082015250565b6000612c78601e83612698565b9150612c8382612c42565b602082019050919050565b60006020820190508181036000830152612ca781612c6b565b9050919050565b6000612cb982612abe565b915060ff8203612ccc57612ccb612b55565b5b600182019050919050565b60006040820190508181036000830152612cf181856126ed565b90508181036020830152612d0581846126ed565b90509392505050565b6000612d1982612555565b91507fffffffffffffffffffffffffffffffffffffffffffffffffffffffffffffffff8203612d4b57612d4a612b55565b5b600182019050919050565b60008190508160005260206000209050919050565b60008154612d7881612b24565b612d828186612698565b94506001821660008114612d9d5760018114612daf57612de2565b60ff1983168652602086019350612de2565b612db885612d56565b60005b83811015612dda57815481890152600182019150602081019050612dbb565b808801955050505b50505092915050565b60006040820190508181036000830152612e058185612d6b565b9050612e14602083018461294a565b9392505050565b60006020820190508181036000830152612e358184612d6b565b905092915050565b7f4f776e61626c653a206e6577206f776e657220697320746865207a65726f206160008201527f6464726573730000000000000000000000000000000000000000000000000000602082015250565b6000612e99602683612698565b9150612ea482612e3d565b604082019050919050565b60006020820190508181036000830152612ec881612e8c565b9050919050565b7f4f776e61626c653a2063616c6c6572206973206e6f7420746865206f776e6572600082015250565b6000612f05602083612698565b9150612f1082612ecf565b602082019050919050565b60006020820190508181036000830152612f3481612ef8565b905091905056fea2646970667358221220122b18664bd39db33ab99cbb4bb0872bee77486f0ac2e6f85a40ab5f006d585864736f6c634300080d0033",
  "devdoc": {
    "kind": "dev",
    "methods": {
      "owner()": {
        "details": "Returns the address of the current owner."
      },
      "renounceOwnership()": {
        "details": "Leaves the contract without owner. It will not be possible to call `onlyOwner` functions anymore. Can only be called by the current owner. NOTE: Renouncing ownership will leave the contract without an owner, thereby removing any functionality that is only available to the owner."
      },
      "transferOwnership(address)": {
        "details": "Transfers ownership of the contract to a new account (`newOwner`). Can only be called by the current owner."
      }
    },
    "version": 1
  },
  "userdoc": {
    "kind": "user",
    "methods": {
      "addRedFlag(uint256,address)": {
        "notice": "Admins can add a red flag to a donee for the sake of setting them to removal by admins for bad behaviour and giving them time to withdraw funds"
      },
      "approveDonee(address)": {
        "notice": "Approves donee to be able to finish the process to make it's profile "
      },
      "cancelDoneePetition()": {
        "notice": "Cancell the donee petition but does not decrease the <addressToRequestSent> for the address, also freeze the address to be able to apply again to donee for a while."
      },
      "doneePetition(string)": {
        "notice": "Sends a petition to be confirmed as donee, first needs to be accepted and then finished by each donee in case. It is verified that the address has not send more than 3 attempts and that if it was freezed, the time has already passed..."
      },
      "removeDonee(uint256,address)": {
        "notice": "Admins can only remove a donee after 3 red flags"
      }
    },
    "version": 1
  },
  "storageLayout": {
    "storage": [
      {
        "astId": 7,
        "contract": "contracts/DefiContribute.sol:DefiContribute",
        "label": "_owner",
        "offset": 0,
        "slot": "0",
        "type": "t_address"
      },
      {
        "astId": 179,
        "contract": "contracts/DefiContribute.sol:DefiContribute",
        "label": "admin",
        "offset": 0,
        "slot": "1",
        "type": "t_mapping(t_address,t_bool)"
      },
      {
        "astId": 183,
        "contract": "contracts/DefiContribute.sol:DefiContribute",
        "label": "toNewDonee",
        "offset": 0,
        "slot": "2",
        "type": "t_mapping(t_address,t_bool)"
      },
      {
        "astId": 188,
        "contract": "contracts/DefiContribute.sol:DefiContribute",
        "label": "doneeToStatus",
        "offset": 0,
        "slot": "3",
        "type": "t_mapping(t_address,t_enum(doneeStatus)164)"
      },
      {
        "astId": 192,
        "contract": "contracts/DefiContribute.sol:DefiContribute",
        "label": "addressToRequestsSent",
        "offset": 0,
        "slot": "4",
        "type": "t_mapping(t_address,t_uint8)"
      },
      {
        "astId": 196,
        "contract": "contracts/DefiContribute.sol:DefiContribute",
        "label": "doneeCandidateToFreezeTime",
        "offset": 0,
        "slot": "5",
        "type": "t_mapping(t_address,t_uint256)"
      },
      {
        "astId": 201,
        "contract": "contracts/DefiContribute.sol:DefiContribute",
        "label": "idToDonee",
        "offset": 0,
        "slot": "6",
        "type": "t_mapping(t_uint256,t_struct(Donee)175_storage)"
      },
      {
        "astId": 205,
        "contract": "contracts/DefiContribute.sol:DefiContribute",
        "label": "addressToDoneeId",
        "offset": 0,
        "slot": "7",
        "type": "t_mapping(t_address,t_uint256)"
      },
      {
        "astId": 209,
        "contract": "contracts/DefiContribute.sol:DefiContribute",
        "label": "doneeToWithdrawalFreeze",
        "offset": 0,
        "slot": "8",
        "type": "t_mapping(t_uint256,t_uint256)"
      },
      {
        "astId": 213,
        "contract": "contracts/DefiContribute.sol:DefiContribute",
        "label": "idToRedFlags",
        "offset": 0,
        "slot": "9",
        "type": "t_mapping(t_uint256,t_uint8)"
      },
      {
        "astId": 216,
        "contract": "contracts/DefiContribute.sol:DefiContribute",
        "label": "doneesId",
        "offset": 0,
        "slot": "10",
        "type": "t_uint256"
      },
      {
        "astId": 218,
        "contract": "contracts/DefiContribute.sol:DefiContribute",
        "label": "randomDonationPool",
        "offset": 0,
        "slot": "11",
        "type": "t_uint256"
      }
    ],
    "types": {
      "t_address": {
        "encoding": "inplace",
        "label": "address",
        "numberOfBytes": "20"
      },
      "t_address_payable": {
        "encoding": "inplace",
        "label": "address payable",
        "numberOfBytes": "20"
      },
      "t_bool": {
        "encoding": "inplace",
        "label": "bool",
        "numberOfBytes": "1"
      },
      "t_enum(doneeStatus)164": {
        "encoding": "inplace",
        "label": "enum DefiContribute.doneeStatus",
        "numberOfBytes": "1"
      },
      "t_mapping(t_address,t_bool)": {
        "encoding": "mapping",
        "key": "t_address",
        "label": "mapping(address => bool)",
        "numberOfBytes": "32",
        "value": "t_bool"
      },
      "t_mapping(t_address,t_enum(doneeStatus)164)": {
        "encoding": "mapping",
        "key": "t_address",
        "label": "mapping(address => enum DefiContribute.doneeStatus)",
        "numberOfBytes": "32",
        "value": "t_enum(doneeStatus)164"
      },
      "t_mapping(t_address,t_uint256)": {
        "encoding": "mapping",
        "key": "t_address",
        "label": "mapping(address => uint256)",
        "numberOfBytes": "32",
        "value": "t_uint256"
      },
      "t_mapping(t_address,t_uint8)": {
        "encoding": "mapping",
        "key": "t_address",
        "label": "mapping(address => uint8)",
        "numberOfBytes": "32",
        "value": "t_uint8"
      },
      "t_mapping(t_uint256,t_struct(Donee)175_storage)": {
        "encoding": "mapping",
        "key": "t_uint256",
        "label": "mapping(uint256 => struct DefiContribute.Donee)",
        "numberOfBytes": "32",
        "value": "t_struct(Donee)175_storage"
      },
      "t_mapping(t_uint256,t_uint256)": {
        "encoding": "mapping",
        "key": "t_uint256",
        "label": "mapping(uint256 => uint256)",
        "numberOfBytes": "32",
        "value": "t_uint256"
      },
      "t_mapping(t_uint256,t_uint8)": {
        "encoding": "mapping",
        "key": "t_uint256",
        "label": "mapping(uint256 => uint8)",
        "numberOfBytes": "32",
        "value": "t_uint8"
      },
      "t_string_storage": {
        "encoding": "bytes",
        "label": "string",
        "numberOfBytes": "32"
      },
      "t_struct(Donee)175_storage": {
        "encoding": "inplace",
        "label": "struct DefiContribute.Donee",
        "members": [
          {
            "astId": 166,
            "contract": "contracts/DefiContribute.sol:DefiContribute",
            "label": "cause",
            "offset": 0,
            "slot": "0",
            "type": "t_string_storage"
          },
          {
            "astId": 168,
            "contract": "contracts/DefiContribute.sol:DefiContribute",
            "label": "id",
            "offset": 0,
            "slot": "1",
            "type": "t_uint256"
          },
          {
            "astId": 170,
            "contract": "contracts/DefiContribute.sol:DefiContribute",
            "label": "proceeds",
            "offset": 0,
            "slot": "2",
            "type": "t_uint256"
          },
          {
            "astId": 172,
            "contract": "contracts/DefiContribute.sol:DefiContribute",
            "label": "wallet",
            "offset": 0,
            "slot": "3",
            "type": "t_address_payable"
          },
          {
            "astId": 174,
            "contract": "contracts/DefiContribute.sol:DefiContribute",
            "label": "message",
            "offset": 0,
            "slot": "4",
            "type": "t_string_storage"
          }
        ],
        "numberOfBytes": "160"
      },
      "t_uint256": {
        "encoding": "inplace",
        "label": "uint256",
        "numberOfBytes": "32"
      },
      "t_uint8": {
        "encoding": "inplace",
        "label": "uint8",
        "numberOfBytes": "1"
      }
    }
  }
}