{
  "address": "0x5FbDB2315678afecb367f032d93F642f64180aa3",
  "abi": [
    {
      "inputs": [],
      "stateMutability": "nonpayable",
      "type": "constructor"
    },
    {
      "inputs": [],
      "name": "DefiContribute__NoAdminFound",
      "type": "error"
    },
    {
      "inputs": [],
      "name": "DefiContribute__NotAcceptedAsDonee",
      "type": "error"
    },
    {
      "inputs": [],
      "name": "DefiContribute__NotDonee",
      "type": "error"
    },
    {
      "inputs": [],
      "name": "DefiContribute__NotElegibleDueYourRole",
      "type": "error"
    },
    {
      "inputs": [],
      "name": "DefiContribute__NotEligibleToDoneeRequest",
      "type": "error"
    },
    {
      "inputs": [],
      "name": "DefiContribute__NotEligibleToRemoval",
      "type": "error"
    },
    {
      "inputs": [],
      "name": "DefiContribute__NotEligibleToWithdraw",
      "type": "error"
    },
    {
      "inputs": [],
      "name": "DefiContribute__NotInPendingStatus",
      "type": "error"
    },
    {
      "inputs": [],
      "name": "DefiContribute__NotTheDonee",
      "type": "error"
    },
    {
      "anonymous": false,
      "inputs": [
        {
          "indexed": true,
          "internalType": "address",
          "name": "admin",
          "type": "address"
        }
      ],
      "name": "AdminRevoke",
      "type": "event"
    },
    {
      "anonymous": false,
      "inputs": [
        {
          "indexed": true,
          "internalType": "address",
          "name": "donee",
          "type": "address"
        }
      ],
      "name": "ApprovedDonee",
      "type": "event"
    },
    {
      "anonymous": false,
      "inputs": [
        {
          "indexed": true,
          "internalType": "address",
          "name": "donee",
          "type": "address"
        }
      ],
      "name": "DoneeRequestCanceled",
      "type": "event"
    },
    {
      "anonymous": false,
      "inputs": [
        {
          "indexed": true,
          "internalType": "address",
          "name": "to",
          "type": "address"
        },
        {
          "indexed": true,
          "internalType": "address",
          "name": "from",
          "type": "address"
        },
        {
          "indexed": true,
          "internalType": "uint256",
          "name": "amount",
          "type": "uint256"
        }
      ],
      "name": "Dontation",
      "type": "event"
    },
    {
      "anonymous": false,
      "inputs": [
        {
          "indexed": true,
          "internalType": "string",
          "name": "cause",
          "type": "string"
        },
        {
          "indexed": true,
          "internalType": "uint256",
          "name": "id",
          "type": "uint256"
        },
        {
          "indexed": true,
          "internalType": "address",
          "name": "wallet",
          "type": "address"
        }
      ],
      "name": "EliminatedDonee",
      "type": "event"
    },
    {
      "anonymous": false,
      "inputs": [
        {
          "indexed": true,
          "internalType": "address",
          "name": "admin",
          "type": "address"
        }
      ],
      "name": "NewAdmin",
      "type": "event"
    },
    {
      "anonymous": false,
      "inputs": [
        {
          "indexed": true,
          "internalType": "string",
          "name": "cause",
          "type": "string"
        },
        {
          "indexed": true,
          "internalType": "address",
          "name": "donee",
          "type": "address"
        },
        {
          "indexed": true,
          "internalType": "uint256",
          "name": "doneeId",
          "type": "uint256"
        },
        {
          "indexed": false,
          "internalType": "string",
          "name": "message",
          "type": "string"
        }
      ],
      "name": "NewDonee",
      "type": "event"
    },
    {
      "anonymous": false,
      "inputs": [
        {
          "indexed": true,
          "internalType": "address",
          "name": "donee",
          "type": "address"
        },
        {
          "indexed": false,
          "internalType": "string",
          "name": "message",
          "type": "string"
        }
      ],
      "name": "NewDoneeRequest",
      "type": "event"
    },
    {
      "anonymous": false,
      "inputs": [
        {
          "indexed": true,
          "internalType": "address",
          "name": "previousOwner",
          "type": "address"
        },
        {
          "indexed": true,
          "internalType": "address",
          "name": "newOwner",
          "type": "address"
        }
      ],
      "name": "OwnershipTransferred",
      "type": "event"
    },
    {
      "anonymous": false,
      "inputs": [
        {
          "indexed": true,
          "internalType": "string",
          "name": "name",
          "type": "string"
        },
        {
          "indexed": true,
          "internalType": "uint256",
          "name": "id",
          "type": "uint256"
        },
        {
          "indexed": true,
          "internalType": "address",
          "name": "wallet",
          "type": "address"
        }
      ],
      "name": "ReadyToRemove",
      "type": "event"
    },
    {
      "anonymous": false,
      "inputs": [
        {
          "indexed": true,
          "internalType": "string",
          "name": "name",
          "type": "string"
        },
        {
          "indexed": true,
          "internalType": "uint256",
          "name": "id",
          "type": "uint256"
        },
        {
          "indexed": false,
          "internalType": "address",
          "name": "wallet",
          "type": "address"
        },
        {
          "indexed": true,
          "internalType": "address",
          "name": "admin",
          "type": "address"
        }
      ],
      "name": "RedFlag",
      "type": "event"
    },
    {
      "anonymous": false,
      "inputs": [
        {
          "indexed": true,
          "internalType": "address",
          "name": "donee",
          "type": "address"
        }
      ],
      "name": "RejectedDonee",
      "type": "event"
    },
    {
      "anonymous": false,
      "inputs": [
        {
          "indexed": true,
          "internalType": "uint256",
          "name": "amount",
          "type": "uint256"
        }
      ],
      "name": "SummedToThePool",
      "type": "event"
    },
    {
      "anonymous": false,
      "inputs": [
        {
          "components": [
            {
              "internalType": "string",
              "name": "name",
              "type": "string"
            },
            {
              "internalType": "uint256",
              "name": "id",
              "type": "uint256"
            },
            {
              "internalType": "uint256",
              "name": "proceeds",
              "type": "uint256"
            },
            {
              "internalType": "address payable",
              "name": "wallet",
              "type": "address"
            },
            {
              "internalType": "string",
              "name": "message",
              "type": "string"
            }
          ],
          "indexed": true,
          "internalType": "struct DefiContribute.Donee",
          "name": "donee",
          "type": "tuple"
        },
        {
          "indexed": true,
          "internalType": "uint256",
          "name": "proceeds",
          "type": "uint256"
        }
      ],
      "name": "Withdrawal",
      "type": "event"
    },
    {
      "inputs": [
        {
          "internalType": "address",
          "name": "_newAdmin",
          "type": "address"
        }
      ],
      "name": "addAdmin",
      "outputs": [],
      "stateMutability": "nonpayable",
      "type": "function"
    },
    {
      "inputs": [
        {
          "internalType": "uint256",
          "name": "_doneeId",
          "type": "uint256"
        },
        {
          "internalType": "address",
          "name": "_wallet",
          "type": "address"
        }
      ],
      "name": "addRedFlag",
      "outputs": [],
      "stateMutability": "nonpayable",
      "type": "function"
    },
    {
      "inputs": [
        {
          "internalType": "address",
          "name": "",
          "type": "address"
        }
      ],
      "name": "addressToRequestsSent",
      "outputs": [
        {
          "internalType": "uint8",
          "name": "",
          "type": "uint8"
        }
      ],
      "stateMutability": "view",
      "type": "function"
    },
    {
      "inputs": [
        {
          "internalType": "address",
          "name": "",
          "type": "address"
        }
      ],
      "name": "admin",
      "outputs": [
        {
          "internalType": "bool",
          "name": "",
          "type": "bool"
        }
      ],
      "stateMutability": "view",
      "type": "function"
    },
    {
      "inputs": [
        {
          "internalType": "address payable",
          "name": "_donee",
          "type": "address"
        }
      ],
      "name": "approveDonee",
      "outputs": [],
      "stateMutability": "nonpayable",
      "type": "function"
    },
    {
      "inputs": [
        {
          "internalType": "string",
          "name": "_name",
          "type": "string"
        },
        {
          "internalType": "string",
          "name": "_message",
          "type": "string"
        }
      ],
      "name": "becomeDonee",
      "outputs": [],
      "stateMutability": "nonpayable",
      "type": "function"
    },
    {
      "inputs": [],
      "name": "cancelDoneePetition",
      "outputs": [],
      "stateMutability": "nonpayable",
      "type": "function"
    },
    {
      "inputs": [
        {
          "internalType": "uint256",
          "name": "_doneeId",
          "type": "uint256"
        },
        {
          "internalType": "address payable",
          "name": "_wallet",
          "type": "address"
        }
      ],
      "name": "donate",
      "outputs": [],
      "stateMutability": "payable",
      "type": "function"
    },
    {
      "inputs": [
        {
          "internalType": "address",
          "name": "",
          "type": "address"
        }
      ],
      "name": "doneeCandidateToFreezeTime",
      "outputs": [
        {
          "internalType": "uint256",
          "name": "",
          "type": "uint256"
        }
      ],
      "stateMutability": "view",
      "type": "function"
    },
    {
      "inputs": [
        {
          "internalType": "string",
          "name": "_message",
          "type": "string"
        }
      ],
      "name": "doneePetition",
      "outputs": [
        {
          "internalType": "bool",
          "name": "success",
          "type": "bool"
        }
      ],
      "stateMutability": "nonpayable",
      "type": "function"
    },
    {
      "inputs": [
        {
          "internalType": "address",
          "name": "",
          "type": "address"
        }
      ],
      "name": "doneeToStatus",
      "outputs": [
        {
          "internalType": "enum DefiContribute.doneeRequestStatus",
          "name": "",
          "type": "uint8"
        }
      ],
      "stateMutability": "view",
      "type": "function"
    },
    {
      "inputs": [
        {
          "internalType": "uint256",
          "name": "",
          "type": "uint256"
        }
      ],
      "name": "doneeToWithdrawalFreeze",
      "outputs": [
        {
          "internalType": "uint256",
          "name": "",
          "type": "uint256"
        }
      ],
      "stateMutability": "view",
      "type": "function"
    },
    {
      "inputs": [],
      "name": "doneesId",
      "outputs": [
        {
          "internalType": "uint256",
          "name": "",
          "type": "uint256"
        }
      ],
      "stateMutability": "view",
      "type": "function"
    },
    {
      "inputs": [
        {
          "internalType": "uint256",
          "name": "",
          "type": "uint256"
        }
      ],
      "name": "idToDonee",
      "outputs": [
        {
          "internalType": "string",
          "name": "name",
          "type": "string"
        },
        {
          "internalType": "uint256",
          "name": "id",
          "type": "uint256"
        },
        {
          "internalType": "uint256",
          "name": "proceeds",
          "type": "uint256"
        },
        {
          "internalType": "address payable",
          "name": "wallet",
          "type": "address"
        },
        {
          "internalType": "string",
          "name": "message",
          "type": "string"
        }
      ],
      "stateMutability": "view",
      "type": "function"
    },
    {
      "inputs": [
        {
          "internalType": "uint256",
          "name": "",
          "type": "uint256"
        }
      ],
      "name": "idToRedFlags",
      "outputs": [
        {
          "internalType": "uint8",
          "name": "",
          "type": "uint8"
        }
      ],
      "stateMutability": "view",
      "type": "function"
    },
    {
      "inputs": [],
      "name": "owner",
      "outputs": [
        {
          "internalType": "address",
          "name": "",
          "type": "address"
        }
      ],
      "stateMutability": "view",
      "type": "function"
    },
    {
      "inputs": [],
      "name": "randomDonationPool",
      "outputs": [
        {
          "internalType": "uint256",
          "name": "",
          "type": "uint256"
        }
      ],
      "stateMutability": "view",
      "type": "function"
    },
    {
      "inputs": [
        {
          "internalType": "address payable",
          "name": "_donee",
          "type": "address"
        }
      ],
      "name": "rejectDonee",
      "outputs": [],
      "stateMutability": "nonpayable",
      "type": "function"
    },
    {
      "inputs": [
        {
          "internalType": "uint256",
          "name": "_doneeId",
          "type": "uint256"
        },
        {
          "internalType": "address payable",
          "name": "_wallet",
          "type": "address"
        }
      ],
      "name": "removeDonee",
      "outputs": [],
      "stateMutability": "nonpayable",
      "type": "function"
    },
    {
      "inputs": [],
      "name": "renounceOwnership",
      "outputs": [],
      "stateMutability": "nonpayable",
      "type": "function"
    },
    {
      "inputs": [
        {
          "internalType": "address",
          "name": "_admin",
          "type": "address"
        }
      ],
      "name": "revokeAdmin",
      "outputs": [],
      "stateMutability": "nonpayable",
      "type": "function"
    },
    {
      "inputs": [
        {
          "internalType": "address",
          "name": "",
          "type": "address"
        }
      ],
      "name": "toNewDonee",
      "outputs": [
        {
          "internalType": "bool",
          "name": "",
          "type": "bool"
        }
      ],
      "stateMutability": "view",
      "type": "function"
    },
    {
      "inputs": [
        {
          "internalType": "address",
          "name": "newOwner",
          "type": "address"
        }
      ],
      "name": "transferOwnership",
      "outputs": [],
      "stateMutability": "nonpayable",
      "type": "function"
    },
    {
      "inputs": [],
      "name": "withdraw",
      "outputs": [],
      "stateMutability": "nonpayable",
      "type": "function"
    }
  ],
  "transactionHash": "0x5c37657aeec39c4362483779843d164bbbe97d70ebd5b40affb819c0186c174c",
  "args": [],
  "numDeployments": 1,
  "solcInputHash": "55bef38ca72b1dffa562c7c6a1b752c9",
  "bytecode": "0x60806040526000600a553480156200001657600080fd5b50620000376200002b6200003d60201b60201c565b6200004560201b60201c565b62000109565b600033905090565b60008060009054906101000a900473ffffffffffffffffffffffffffffffffffffffff169050816000806101000a81548173ffffffffffffffffffffffffffffffffffffffff021916908373ffffffffffffffffffffffffffffffffffffffff1602179055508173ffffffffffffffffffffffffffffffffffffffff168173ffffffffffffffffffffffffffffffffffffffff167f8be0079c531659141344cd1fd0a4f28419497f9722a3daafe3b4186f6b6457e060405160405180910390a35050565b612f4680620001196000396000f3fe60806040526004361061014b5760003560e01c8063715018a6116100b6578063bb7c61491161006f578063bb7c61491461046f578063bdb4ae391461049a578063d121f01f146104d7578063e47c635b14610500578063f2fde38b1461053d578063fb38d587146105665761014b565b8063715018a6146103825780638004f9fa1461039957806388bde837146103b55780638da5cb5b146103de578063a0dca82814610409578063b5ff7a98146104465761014b565b8063434b0d9611610108578063434b0d961461025c5780634583401b146102875780635e32c6251461029e57806363a846f8146102df578063704802751461031c57806370fbb711146103455761014b565b80631ebf1da514610150578063290334c51461018d5780632a6daf9c146101b65780632ab557f6146101df5780632d3456701461021c5780633ccfd60b14610245575b600080fd5b34801561015c57600080fd5b5061017760048036038101906101729190612324565b6105a3565b604051610184919061236a565b60405180910390f35b34801561019957600080fd5b506101b460048036038101906101af91906123ef565b6105bb565b005b3480156101c257600080fd5b506101dd60048036038101906101d8919061242f565b610944565b005b3480156101eb57600080fd5b506102066004803603810190610201919061245c565b610ba6565b604051610213919061236a565b60405180910390f35b34801561022857600080fd5b50610243600480360381019061023e9190612324565b610bbe565b005b34801561025157600080fd5b5061025a610cf3565b005b34801561026857600080fd5b5061027161105b565b60405161027e919061236a565b60405180910390f35b34801561029357600080fd5b5061029c611061565b005b3480156102aa57600080fd5b506102c560048036038101906102c0919061245c565b611220565b6040516102d6959493929190612531565b60405180910390f35b3480156102eb57600080fd5b5061030660048036038101906103019190612324565b611386565b60405161031391906125ad565b60405180910390f35b34801561032857600080fd5b50610343600480360381019061033e9190612324565b6113a6565b005b34801561035157600080fd5b5061036c600480360381019061036791906126fd565b61144b565b60405161037991906125ad565b60405180910390f35b34801561038e57600080fd5b50610397611735565b005b6103b360048036038101906103ae91906123ef565b611749565b005b3480156103c157600080fd5b506103dc60048036038101906103d7919061242f565b6118e5565b005b3480156103ea57600080fd5b506103f3611af5565b6040516104009190612755565b60405180910390f35b34801561041557600080fd5b50610430600480360381019061042b9190612324565b611b1e565b60405161043d91906127e7565b60405180910390f35b34801561045257600080fd5b5061046d60048036038101906104689190612802565b611b3e565b005b34801561047b57600080fd5b50610484611d97565b604051610491919061236a565b60405180910390f35b3480156104a657600080fd5b506104c160048036038101906104bc9190612324565b611d9d565b6040516104ce91906125ad565b60405180910390f35b3480156104e357600080fd5b506104fe60048036038101906104f9919061287a565b611dbd565b005b34801561050c57600080fd5b5061052760048036038101906105229190612324565b611fc2565b60405161053491906128d6565b60405180910390f35b34801561054957600080fd5b50610564600480360381019061055f9190612324565b611fe2565b005b34801561057257600080fd5b5061058d6004803603810190610588919061245c565b612065565b60405161059a91906128d6565b60405180910390f35b60056020528060005260406000206000915090505481565b60011515600160003373ffffffffffffffffffffffffffffffffffffffff1673ffffffffffffffffffffffffffffffffffffffff16815260200190815260200160002060009054906101000a900460ff1615150361090e578181600a54821115801561068857506006600083815260200190815260200160002060030160009054906101000a900473ffffffffffffffffffffffffffffffffffffffff1673ffffffffffffffffffffffffffffffffffffffff168173ffffffffffffffffffffffffffffffffffffffff16145b80156106b8575060036009600084815260200190815260200160002060009054906101000a900460ff1660ff1610155b156108d55760006006600086815260200190815260200160002060000180546106e090612920565b80601f016020809104026020016040519081016040528092919081815260200182805461070c90612920565b80156107595780601f1061072e57610100808354040283529160200191610759565b820191906000526020600020905b81548152906001019060200180831161073c57829003601f168201915b5050505050905060006006600087815260200190815260200160002060030160009054906101000a900473ffffffffffffffffffffffffffffffffffffffff16905060006006600088815260200190815260200160002060020154905060066000888152602001908152602001600020600080820160006107da91906121cf565b600182016000905560028201600090556003820160006101000a81549073ffffffffffffffffffffffffffffffffffffffff021916905560048201600061082191906121cf565b505060008111156108735780600b600082825461083e9190612980565b92505081905550807f8e93376fbc704d7ad6fb176a1d6db518bd3419f53c422e52f635f7431a04614860405160405180910390a25b8173ffffffffffffffffffffffffffffffffffffffff1687846040516108999190612a12565b60405180910390207f46f016f4c4df5160652d59ddfd8981697d79f8d1471f3075aae1f839c48aa32860405160405180910390a4505050610907565b6040517f3cec5e7600000000000000000000000000000000000000000000000000000000815260040160405180910390fd5b5050610940565b6040517f4ee7f7e100000000000000000000000000000000000000000000000000000000815260040160405180910390fd5b5050565b60011515600160003373ffffffffffffffffffffffffffffffffffffffff1673ffffffffffffffffffffffffffffffffffffffff16815260200190815260200160002060009054906101000a900460ff16151503610b7157600160038111156109b0576109af612770565b5b60038111156109c2576109c1612770565b5b600360008373ffffffffffffffffffffffffffffffffffffffff1673ffffffffffffffffffffffffffffffffffffffff16815260200190815260200160002060009054906101000a900460ff166003811115610a2157610a20612770565b5b03610b3a57626ebe0042610a359190612980565b600560008373ffffffffffffffffffffffffffffffffffffffff1673ffffffffffffffffffffffffffffffffffffffff1681526020019081526020016000208190555060006003811115610a8c57610a8b612770565b5b600360008373ffffffffffffffffffffffffffffffffffffffff1673ffffffffffffffffffffffffffffffffffffffff16815260200190815260200160002060006101000a81548160ff02191690836003811115610aed57610aec612770565b5b02179055508073ffffffffffffffffffffffffffffffffffffffff167f87cc692c545c54e9bfca3c6ae497959ccedcb882e98fe00f0b3727eebd376d2760405160405180910390a2610b6c565b6040517f91015ac000000000000000000000000000000000000000000000000000000000815260040160405180910390fd5b610ba3565b6040517f4ee7f7e100000000000000000000000000000000000000000000000000000000815260040160405180910390fd5b50565b60086020528060005260406000206000915090505481565b610bc6612085565b60011515600160008373ffffffffffffffffffffffffffffffffffffffff1673ffffffffffffffffffffffffffffffffffffffff16815260200190815260200160002060009054906101000a900460ff16151503610cbe576000600160008373ffffffffffffffffffffffffffffffffffffffff1673ffffffffffffffffffffffffffffffffffffffff16815260200190815260200160002060006101000a81548160ff0219169083151502179055508073ffffffffffffffffffffffffffffffffffffffff167ffc39847ee7e0d58f93c19a6ccbdede1c4d372673160e4bfa484452b26ffdbfe360405160405180910390a2610cf0565b6040517f4ee7f7e100000000000000000000000000000000000000000000000000000000815260040160405180910390fd5b50565b3373ffffffffffffffffffffffffffffffffffffffff1660066000600760003373ffffffffffffffffffffffffffffffffffffffff1673ffffffffffffffffffffffffffffffffffffffff16815260200190815260200160002054815260200190815260200160002060030160009054906101000a900473ffffffffffffffffffffffffffffffffffffffff1673ffffffffffffffffffffffffffffffffffffffff1603611027574260086000600760003373ffffffffffffffffffffffffffffffffffffffff1673ffffffffffffffffffffffffffffffffffffffff1681526020019081526020016000205481526020019081526020016000205411610ff057600060066000600760003373ffffffffffffffffffffffffffffffffffffffff1673ffffffffffffffffffffffffffffffffffffffff168152602001908152602001600020548152602001908152602001600020600201549050600060066000600760003373ffffffffffffffffffffffffffffffffffffffff1673ffffffffffffffffffffffffffffffffffffffff1681526020019081526020016000205481526020019081526020016000206002018190555060003373ffffffffffffffffffffffffffffffffffffffff1682604051610ecf90612a5a565b60006040518083038185875af1925050503d8060008114610f0c576040519150601f19603f3d011682016040523d82523d6000602084013e610f11565b606091505b5050905080610f55576040517f08c379a0000000000000000000000000000000000000000000000000000000008152600401610f4c90612abb565b60405180910390fd5b8160066000600760003373ffffffffffffffffffffffffffffffffffffffff1673ffffffffffffffffffffffffffffffffffffffff168152602001908152602001600020548152602001908152602001600020604051610fb59190612cd2565b60405180910390207fa8acecb7c56474aefa3e3d0024cf30e6ebb1c575d07197ca3bc02a0be8e932c960405160405180910390a35050611022565b6040517f4bd0eeef00000000000000000000000000000000000000000000000000000000815260040160405180910390fd5b611059565b6040517f370d811e00000000000000000000000000000000000000000000000000000000815260040160405180910390fd5b565b600a5481565b6001600381111561107557611074612770565b5b600360003373ffffffffffffffffffffffffffffffffffffffff1673ffffffffffffffffffffffffffffffffffffffff16815260200190815260200160002060009054906101000a900460ff1660038111156110d4576110d3612770565b5b036111ec576224ea00426110e89190612980565b600560003373ffffffffffffffffffffffffffffffffffffffff1673ffffffffffffffffffffffffffffffffffffffff1681526020019081526020016000208190555060038081111561113e5761113d612770565b5b600360003373ffffffffffffffffffffffffffffffffffffffff1673ffffffffffffffffffffffffffffffffffffffff16815260200190815260200160002060006101000a81548160ff0219169083600381111561119f5761119e612770565b5b02179055503373ffffffffffffffffffffffffffffffffffffffff167f05a088c19c95fb9b607ef05cc66c78ea44920894339f44949c5448322f2c433460405160405180910390a261121e565b6040517f91015ac000000000000000000000000000000000000000000000000000000000815260040160405180910390fd5b565b600660205280600052604060002060009150905080600001805461124390612920565b80601f016020809104026020016040519081016040528092919081815260200182805461126f90612920565b80156112bc5780601f10611291576101008083540402835291602001916112bc565b820191906000526020600020905b81548152906001019060200180831161129f57829003601f168201915b5050505050908060010154908060020154908060030160009054906101000a900473ffffffffffffffffffffffffffffffffffffffff169080600401805461130390612920565b80601f016020809104026020016040519081016040528092919081815260200182805461132f90612920565b801561137c5780601f106113515761010080835404028352916020019161137c565b820191906000526020600020905b81548152906001019060200180831161135f57829003601f168201915b5050505050905085565b60016020528060005260406000206000915054906101000a900460ff1681565b6113ae612085565b60018060008373ffffffffffffffffffffffffffffffffffffffff1673ffffffffffffffffffffffffffffffffffffffff16815260200190815260200160002060006101000a81548160ff0219169083151502179055508073ffffffffffffffffffffffffffffffffffffffff167f71614071b88dee5e0b2ae578a9dd7b2ebbe9ae832ba419dc0242cd065a290b6c60405160405180910390a250565b60003373ffffffffffffffffffffffffffffffffffffffff1661146c611af5565b73ffffffffffffffffffffffffffffffffffffffff1614806114de575060011515600160003373ffffffffffffffffffffffffffffffffffffffff1673ffffffffffffffffffffffffffffffffffffffff16815260200190815260200160002060009054906101000a900460ff161515145b15611515576040517f223a631900000000000000000000000000000000000000000000000000000000815260040160405180910390fd5b6003600460003373ffffffffffffffffffffffffffffffffffffffff1673ffffffffffffffffffffffffffffffffffffffff16815260200190815260200160002060009054906101000a900460ff1660ff161080156115b3575042600560003373ffffffffffffffffffffffffffffffffffffffff1673ffffffffffffffffffffffffffffffffffffffff1681526020019081526020016000205411155b156116fe57600460003373ffffffffffffffffffffffffffffffffffffffff1673ffffffffffffffffffffffffffffffffffffffff168152602001908152602001600020600081819054906101000a900460ff168092919061161490612ce9565b91906101000a81548160ff021916908360ff160217905550506001600381111561164157611640612770565b5b600360003373ffffffffffffffffffffffffffffffffffffffff1673ffffffffffffffffffffffffffffffffffffffff16815260200190815260200160002060006101000a81548160ff021916908360038111156116a2576116a1612770565b5b02179055503373ffffffffffffffffffffffffffffffffffffffff167f5f610ebaf61c83b9959bb61070d05b196d0ac759bcc382f7e535166386082a68836040516116ed9190612d12565b60405180910390a260019050611730565b6040517f517295a000000000000000000000000000000000000000000000000000000000815260040160405180910390fd5b919050565b61173d612085565b6117476000612103565b565b600073ffffffffffffffffffffffffffffffffffffffff166006600084815260200190815260200160002060030160009054906101000a900473ffffffffffffffffffffffffffffffffffffffff1673ffffffffffffffffffffffffffffffffffffffff161415801561181d57508073ffffffffffffffffffffffffffffffffffffffff166006600084815260200190815260200160002060030160009054906101000a900473ffffffffffffffffffffffffffffffffffffffff1673ffffffffffffffffffffffffffffffffffffffff16145b156118af57346006600084815260200190815260200160002060020160008282546118489190612980565b92505081905550343373ffffffffffffffffffffffffffffffffffffffff168273ffffffffffffffffffffffffffffffffffffffff167ffdabde330ebaaf7a62a1e2ee3b6ff72df7de7e445afb30ef5d8aaf08365fc1e860405160405180910390a46118e1565b6040517f341ebcca00000000000000000000000000000000000000000000000000000000815260040160405180910390fd5b5050565b60011515600160003373ffffffffffffffffffffffffffffffffffffffff1673ffffffffffffffffffffffffffffffffffffffff16815260200190815260200160002060009054906101000a900460ff16151503611ac0576001600381111561195157611950612770565b5b600381111561196357611962612770565b5b600360008373ffffffffffffffffffffffffffffffffffffffff1673ffffffffffffffffffffffffffffffffffffffff16815260200190815260200160002060009054906101000a900460ff1660038111156119c2576119c1612770565b5b03611a8957600260038111156119db576119da612770565b5b600360008373ffffffffffffffffffffffffffffffffffffffff1673ffffffffffffffffffffffffffffffffffffffff16815260200190815260200160002060006101000a81548160ff02191690836003811115611a3c57611a3b612770565b5b02179055508073ffffffffffffffffffffffffffffffffffffffff167f6f5cf3337dd22f5c04e2759cfc9e319d4f95c46636750b801f7afe43146cab7460405160405180910390a2611abb565b6040517f341ebcca00000000000000000000000000000000000000000000000000000000815260040160405180910390fd5b611af2565b6040517f4ee7f7e100000000000000000000000000000000000000000000000000000000815260040160405180910390fd5b50565b60008060009054906101000a900473ffffffffffffffffffffffffffffffffffffffff16905090565b60036020528060005260406000206000915054906101000a900460ff1681565b60026003811115611b5257611b51612770565b5b6003811115611b6457611b63612770565b5b600360003373ffffffffffffffffffffffffffffffffffffffff1673ffffffffffffffffffffffffffffffffffffffff16815260200190815260200160002060009054906101000a900460ff166003811115611bc357611bc2612770565b5b03611d61576040518060a00160405280838152602001600a548152602001600081526020013373ffffffffffffffffffffffffffffffffffffffff1681526020018281525060066000600a5481526020019081526020016000206000820151816000019080519060200190611c3992919061220f565b50602082015181600101556040820151816002015560608201518160030160006101000a81548173ffffffffffffffffffffffffffffffffffffffff021916908373ffffffffffffffffffffffffffffffffffffffff1602179055506080820151816004019080519060200190611cb192919061220f565b509050506224ea0042611cc49190612980565b60086000600a54815260200190815260200160002081905550600a543373ffffffffffffffffffffffffffffffffffffffff1683604051611d059190612a12565b60405180910390207fb724bae351367fa02b7a634a6217e9f177f8444d6b04b52a60768c5235d42b1084604051611d3c9190612d12565b60405180910390a4600a6000815480929190611d5790612d34565b9190505550611d93565b6040517fbac3cc9e00000000000000000000000000000000000000000000000000000000815260040160405180910390fd5b5050565b600b5481565b60026020528060005260406000206000915054906101000a900460ff1681565b60011515600160003373ffffffffffffffffffffffffffffffffffffffff1673ffffffffffffffffffffffffffffffffffffffff16815260200190815260200160002060009054906101000a900460ff16151503611f8c57600a548211158015611e8857508073ffffffffffffffffffffffffffffffffffffffff166006600084815260200190815260200160002060030160009054906101000a900473ffffffffffffffffffffffffffffffffffffffff1673ffffffffffffffffffffffffffffffffffffffff16145b15611f555760096000838152602001908152602001600020600081819054906101000a900460ff1680929190611ebd90612ce9565b91906101000a81548160ff021916908360ff160217905550503373ffffffffffffffffffffffffffffffffffffffff168260066000858152602001908152602001600020600001604051611f119190612dfb565b60405180910390207f2c13aa47a15a3cdbf2876a5c46c7097637cc6a83b0c55e34fccace7bcc3078a584604051611f489190612755565b60405180910390a4611f87565b6040517f370d811e00000000000000000000000000000000000000000000000000000000815260040160405180910390fd5b611fbe565b6040517f4ee7f7e100000000000000000000000000000000000000000000000000000000815260040160405180910390fd5b5050565b60046020528060005260406000206000915054906101000a900460ff1681565b611fea612085565b600073ffffffffffffffffffffffffffffffffffffffff168173ffffffffffffffffffffffffffffffffffffffff1603612059576040517f08c379a000000000000000000000000000000000000000000000000000000000815260040161205090612e84565b60405180910390fd5b61206281612103565b50565b60096020528060005260406000206000915054906101000a900460ff1681565b61208d6121c7565b73ffffffffffffffffffffffffffffffffffffffff166120ab611af5565b73ffffffffffffffffffffffffffffffffffffffff1614612101576040517f08c379a00000000000000000000000000000000000000000000000000000000081526004016120f890612ef0565b60405180910390fd5b565b60008060009054906101000a900473ffffffffffffffffffffffffffffffffffffffff169050816000806101000a81548173ffffffffffffffffffffffffffffffffffffffff021916908373ffffffffffffffffffffffffffffffffffffffff1602179055508173ffffffffffffffffffffffffffffffffffffffff168173ffffffffffffffffffffffffffffffffffffffff167f8be0079c531659141344cd1fd0a4f28419497f9722a3daafe3b4186f6b6457e060405160405180910390a35050565b600033905090565b5080546121db90612920565b6000825580601f106121ed575061220c565b601f01602090049060005260206000209081019061220b9190612295565b5b50565b82805461221b90612920565b90600052602060002090601f01602090048101928261223d5760008555612284565b82601f1061225657805160ff1916838001178555612284565b82800160010185558215612284579182015b82811115612283578251825591602001919060010190612268565b5b5090506122919190612295565b5090565b5b808211156122ae576000816000905550600101612296565b5090565b6000604051905090565b600080fd5b600080fd5b600073ffffffffffffffffffffffffffffffffffffffff82169050919050565b60006122f1826122c6565b9050919050565b612301816122e6565b811461230c57600080fd5b50565b60008135905061231e816122f8565b92915050565b60006020828403121561233a576123396122bc565b5b60006123488482850161230f565b91505092915050565b6000819050919050565b61236481612351565b82525050565b600060208201905061237f600083018461235b565b92915050565b61238e81612351565b811461239957600080fd5b50565b6000813590506123ab81612385565b92915050565b60006123bc826122c6565b9050919050565b6123cc816123b1565b81146123d757600080fd5b50565b6000813590506123e9816123c3565b92915050565b60008060408385031215612406576124056122bc565b5b60006124148582860161239c565b9250506020612425858286016123da565b9150509250929050565b600060208284031215612445576124446122bc565b5b6000612453848285016123da565b91505092915050565b600060208284031215612472576124716122bc565b5b60006124808482850161239c565b91505092915050565b600081519050919050565b600082825260208201905092915050565b60005b838110156124c35780820151818401526020810190506124a8565b838111156124d2576000848401525b50505050565b6000601f19601f8301169050919050565b60006124f482612489565b6124fe8185612494565b935061250e8185602086016124a5565b612517816124d8565b840191505092915050565b61252b816123b1565b82525050565b600060a082019050818103600083015261254b81886124e9565b905061255a602083018761235b565b612567604083018661235b565b6125746060830185612522565b818103608083015261258681846124e9565b90509695505050505050565b60008115159050919050565b6125a781612592565b82525050565b60006020820190506125c2600083018461259e565b92915050565b600080fd5b600080fd5b7f4e487b7100000000000000000000000000000000000000000000000000000000600052604160045260246000fd5b61260a826124d8565b810181811067ffffffffffffffff82111715612629576126286125d2565b5b80604052505050565b600061263c6122b2565b90506126488282612601565b919050565b600067ffffffffffffffff821115612668576126676125d2565b5b612671826124d8565b9050602081019050919050565b82818337600083830152505050565b60006126a061269b8461264d565b612632565b9050828152602081018484840111156126bc576126bb6125cd565b5b6126c784828561267e565b509392505050565b600082601f8301126126e4576126e36125c8565b5b81356126f484826020860161268d565b91505092915050565b600060208284031215612713576127126122bc565b5b600082013567ffffffffffffffff811115612731576127306122c1565b5b61273d848285016126cf565b91505092915050565b61274f816122e6565b82525050565b600060208201905061276a6000830184612746565b92915050565b7f4e487b7100000000000000000000000000000000000000000000000000000000600052602160045260246000fd5b600481106127b0576127af612770565b5b50565b60008190506127c18261279f565b919050565b60006127d1826127b3565b9050919050565b6127e1816127c6565b82525050565b60006020820190506127fc60008301846127d8565b92915050565b60008060408385031215612819576128186122bc565b5b600083013567ffffffffffffffff811115612837576128366122c1565b5b612843858286016126cf565b925050602083013567ffffffffffffffff811115612864576128636122c1565b5b612870858286016126cf565b9150509250929050565b60008060408385031215612891576128906122bc565b5b600061289f8582860161239c565b92505060206128b08582860161230f565b9150509250929050565b600060ff82169050919050565b6128d0816128ba565b82525050565b60006020820190506128eb60008301846128c7565b92915050565b7f4e487b7100000000000000000000000000000000000000000000000000000000600052602260045260246000fd5b6000600282049050600182168061293857607f821691505b60208210810361294b5761294a6128f1565b5b50919050565b7f4e487b7100000000000000000000000000000000000000000000000000000000600052601160045260246000fd5b600061298b82612351565b915061299683612351565b9250827fffffffffffffffffffffffffffffffffffffffffffffffffffffffffffffffff038211156129cb576129ca612951565b5b828201905092915050565b600081905092915050565b60006129ec82612489565b6129f681856129d6565b9350612a068185602086016124a5565b80840191505092915050565b6000612a1e82846129e1565b915081905092915050565b600081905092915050565b50565b6000612a44600083612a29565b9150612a4f82612a34565b600082019050919050565b6000612a6582612a37565b9150819050919050565b7f436f756c64206e6f742077697468647261772070726f63656564732e2e2e0000600082015250565b6000612aa5601e83612494565b9150612ab082612a6f565b602082019050919050565b60006020820190508181036000830152612ad481612a98565b9050919050565b600081905092915050565b60008190508160005260206000209050919050565b60008154612b0881612920565b612b128186612adb565b94506001821660008114612b2d5760018114612b3f57612b72565b60ff1983168652602086019350612b72565b612b4885612ae6565b60005b83811015612b6a57815481890152600182019150602081019050612b4b565b808801955050505b50505092915050565b6000612b878383612afb565b905092915050565b60008160001c9050919050565b6000819050919050565b6000612bb9612bb483612b8f565b612b9c565b9050919050565b612bc981612351565b82525050565b6000612bdb8383612bc0565b60208301905092915050565b600073ffffffffffffffffffffffffffffffffffffffff82169050919050565b6000612c1a612c1583612b8f565b612be7565b9050919050565b612c2a816123b1565b82525050565b6000612c3c8383612c21565b60208301905092915050565b60008083016000808401612c5c8682612b7b565b95505060018401549050612c6f81612ba6565b612c798682612bcf565b95505060028401549050612c8c81612ba6565b612c968682612bcf565b95505060038401549050612ca981612c07565b612cb38682612c30565b95505060048401612cc48682612b7b565b955050849250505092915050565b6000612cde8284612c48565b915081905092915050565b6000612cf4826128ba565b915060ff8203612d0757612d06612951565b5b600182019050919050565b60006020820190508181036000830152612d2c81846124e9565b905092915050565b6000612d3f82612351565b91507fffffffffffffffffffffffffffffffffffffffffffffffffffffffffffffffff8203612d7157612d70612951565b5b600182019050919050565b60008154612d8981612920565b612d9381866129d6565b94506001821660008114612dae5760018114612dbf57612df2565b60ff19831686528186019350612df2565b612dc885612ae6565b60005b83811015612dea57815481890152600182019150602081019050612dcb565b838801955050505b50505092915050565b6000612e078284612d7c565b915081905092915050565b7f4f776e61626c653a206e6577206f776e657220697320746865207a65726f206160008201527f6464726573730000000000000000000000000000000000000000000000000000602082015250565b6000612e6e602683612494565b9150612e7982612e12565b604082019050919050565b60006020820190508181036000830152612e9d81612e61565b9050919050565b7f4f776e61626c653a2063616c6c6572206973206e6f7420746865206f776e6572600082015250565b6000612eda602083612494565b9150612ee582612ea4565b602082019050919050565b60006020820190508181036000830152612f0981612ecd565b905091905056fea264697066735822122077216c240fc3541cab799a8ef6faae8b6daf283afd0ea7490aa716f443cfd76764736f6c634300080d0033",
  "devdoc": {
    "kind": "dev",
    "methods": {
      "owner()": {
        "details": "Returns the address of the current owner."
      },
      "renounceOwnership()": {
        "details": "Leaves the contract without owner. It will not be possible to call `onlyOwner` functions anymore. Can only be called by the current owner. NOTE: Renouncing ownership will leave the contract without an owner, thereby removing any functionality that is only available to the owner."
      },
      "transferOwnership(address)": {
        "details": "Transfers ownership of the contract to a new account (`newOwner`). Can only be called by the current owner."
      }
    },
    "version": 1
  },
  "userdoc": {
    "kind": "user",
    "methods": {
      "addRedFlag(uint256,address)": {
        "notice": "Admins can add a red flag to a donee for the sake of setting them to removal by admins for bad behaviour and giving them time to withdraw funds"
      },
      "approveDonee(address)": {
        "notice": "Approves donee to be able to finish the process to make it's profile "
      },
      "cancelDoneePetition()": {
        "notice": "Cancell the donee petition but does not decrease the <addressToRequestSent> for the address, also freeze the address to be able to apply again to donee for a while."
      },
      "doneePetition(string)": {
        "notice": "Sends a petition to be confirmed as donee, first needs to be accepted and then finished by each donee in case. It is verified that the address has not send more than 3 attempts and that if it was freezed, the time has already passed..."
      },
      "removeDonee(uint256,address)": {
        "notice": "Admins can only remove a donee after 3 red flags"
      }
    },
    "version": 1
  },
  "storageLayout": {
    "storage": [
      {
        "astId": 7,
        "contract": "contracts/DefiContribute.sol:DefiContribute",
        "label": "_owner",
        "offset": 0,
        "slot": "0",
        "type": "t_address"
      },
      {
        "astId": 177,
        "contract": "contracts/DefiContribute.sol:DefiContribute",
        "label": "admin",
        "offset": 0,
        "slot": "1",
        "type": "t_mapping(t_address,t_bool)"
      },
      {
        "astId": 181,
        "contract": "contracts/DefiContribute.sol:DefiContribute",
        "label": "toNewDonee",
        "offset": 0,
        "slot": "2",
        "type": "t_mapping(t_address,t_bool)"
      },
      {
        "astId": 186,
        "contract": "contracts/DefiContribute.sol:DefiContribute",
        "label": "doneeToStatus",
        "offset": 0,
        "slot": "3",
        "type": "t_mapping(t_address,t_enum(doneeRequestStatus)162)"
      },
      {
        "astId": 190,
        "contract": "contracts/DefiContribute.sol:DefiContribute",
        "label": "addressToRequestsSent",
        "offset": 0,
        "slot": "4",
        "type": "t_mapping(t_address,t_uint8)"
      },
      {
        "astId": 194,
        "contract": "contracts/DefiContribute.sol:DefiContribute",
        "label": "doneeCandidateToFreezeTime",
        "offset": 0,
        "slot": "5",
        "type": "t_mapping(t_address,t_uint256)"
      },
      {
        "astId": 199,
        "contract": "contracts/DefiContribute.sol:DefiContribute",
        "label": "idToDonee",
        "offset": 0,
        "slot": "6",
        "type": "t_mapping(t_uint256,t_struct(Donee)173_storage)"
      },
      {
        "astId": 203,
        "contract": "contracts/DefiContribute.sol:DefiContribute",
        "label": "addressToDoneeId",
        "offset": 0,
        "slot": "7",
        "type": "t_mapping(t_address,t_uint256)"
      },
      {
        "astId": 207,
        "contract": "contracts/DefiContribute.sol:DefiContribute",
        "label": "doneeToWithdrawalFreeze",
        "offset": 0,
        "slot": "8",
        "type": "t_mapping(t_uint256,t_uint256)"
      },
      {
        "astId": 211,
        "contract": "contracts/DefiContribute.sol:DefiContribute",
        "label": "idToRedFlags",
        "offset": 0,
        "slot": "9",
        "type": "t_mapping(t_uint256,t_uint8)"
      },
      {
        "astId": 214,
        "contract": "contracts/DefiContribute.sol:DefiContribute",
        "label": "doneesId",
        "offset": 0,
        "slot": "10",
        "type": "t_uint256"
      },
      {
        "astId": 216,
        "contract": "contracts/DefiContribute.sol:DefiContribute",
        "label": "randomDonationPool",
        "offset": 0,
        "slot": "11",
        "type": "t_uint256"
      }
    ],
    "types": {
      "t_address": {
        "encoding": "inplace",
        "label": "address",
        "numberOfBytes": "20"
      },
      "t_address_payable": {
        "encoding": "inplace",
        "label": "address payable",
        "numberOfBytes": "20"
      },
      "t_bool": {
        "encoding": "inplace",
        "label": "bool",
        "numberOfBytes": "1"
      },
      "t_enum(doneeRequestStatus)162": {
        "encoding": "inplace",
        "label": "enum DefiContribute.doneeRequestStatus",
        "numberOfBytes": "1"
      },
      "t_mapping(t_address,t_bool)": {
        "encoding": "mapping",
        "key": "t_address",
        "label": "mapping(address => bool)",
        "numberOfBytes": "32",
        "value": "t_bool"
      },
      "t_mapping(t_address,t_enum(doneeRequestStatus)162)": {
        "encoding": "mapping",
        "key": "t_address",
        "label": "mapping(address => enum DefiContribute.doneeRequestStatus)",
        "numberOfBytes": "32",
        "value": "t_enum(doneeRequestStatus)162"
      },
      "t_mapping(t_address,t_uint256)": {
        "encoding": "mapping",
        "key": "t_address",
        "label": "mapping(address => uint256)",
        "numberOfBytes": "32",
        "value": "t_uint256"
      },
      "t_mapping(t_address,t_uint8)": {
        "encoding": "mapping",
        "key": "t_address",
        "label": "mapping(address => uint8)",
        "numberOfBytes": "32",
        "value": "t_uint8"
      },
      "t_mapping(t_uint256,t_struct(Donee)173_storage)": {
        "encoding": "mapping",
        "key": "t_uint256",
        "label": "mapping(uint256 => struct DefiContribute.Donee)",
        "numberOfBytes": "32",
        "value": "t_struct(Donee)173_storage"
      },
      "t_mapping(t_uint256,t_uint256)": {
        "encoding": "mapping",
        "key": "t_uint256",
        "label": "mapping(uint256 => uint256)",
        "numberOfBytes": "32",
        "value": "t_uint256"
      },
      "t_mapping(t_uint256,t_uint8)": {
        "encoding": "mapping",
        "key": "t_uint256",
        "label": "mapping(uint256 => uint8)",
        "numberOfBytes": "32",
        "value": "t_uint8"
      },
      "t_string_storage": {
        "encoding": "bytes",
        "label": "string",
        "numberOfBytes": "32"
      },
      "t_struct(Donee)173_storage": {
        "encoding": "inplace",
        "label": "struct DefiContribute.Donee",
        "members": [
          {
            "astId": 164,
            "contract": "contracts/DefiContribute.sol:DefiContribute",
            "label": "name",
            "offset": 0,
            "slot": "0",
            "type": "t_string_storage"
          },
          {
            "astId": 166,
            "contract": "contracts/DefiContribute.sol:DefiContribute",
            "label": "id",
            "offset": 0,
            "slot": "1",
            "type": "t_uint256"
          },
          {
            "astId": 168,
            "contract": "contracts/DefiContribute.sol:DefiContribute",
            "label": "proceeds",
            "offset": 0,
            "slot": "2",
            "type": "t_uint256"
          },
          {
            "astId": 170,
            "contract": "contracts/DefiContribute.sol:DefiContribute",
            "label": "wallet",
            "offset": 0,
            "slot": "3",
            "type": "t_address_payable"
          },
          {
            "astId": 172,
            "contract": "contracts/DefiContribute.sol:DefiContribute",
            "label": "message",
            "offset": 0,
            "slot": "4",
            "type": "t_string_storage"
          }
        ],
        "numberOfBytes": "160"
      },
      "t_uint256": {
        "encoding": "inplace",
        "label": "uint256",
        "numberOfBytes": "32"
      },
      "t_uint8": {
        "encoding": "inplace",
        "label": "uint8",
        "numberOfBytes": "1"
      }
    }
  }
}